:04000000A3EF00F07A
:10000800FACF15F0FBCF16F0E9CF17F0DFED08F0C7
:10001800D8CF04F0E8CF05F0E0CF06F0FACF07F02C
:10002800FBCF08F0E9CF09F0EACF0AF0E1CF0BF0F7
:10003800E2CF0CF0D9CF0DF0DACF0EF0F3CF0FF0FE
:10004800F4CF10F0F6CF11F0F7CF12F0F8CF13F08D
:10005800F5CF14F09EAC04D0010E556E9E9C00D0D6
:100068009EA60CD0C5BC03D0010E546E00D0C7505C
:10007800C7A003D0010E576E00D09E96A1A605D04A
:10008800620E3EEC0BF0A19637D09EAA03D0026A0E
:10009800022A01D0026A000EABB4010EABB2010E07
:1000A800E8A003D0036A032A01D0036A0350D8A446
:1000B80002D0010E01D0000E02140009D8B406D0F7
:1000C800AECF59F0010E0001BE6F16D0000EABB4D2
:1000D800010EABB2010EE8A003D0026A022A01D0D9
:1000E800026A0250D8B405D0AECF59F0AB98AB88AD
:1000F80003D0AECF5BF000D014C0F5FF13C0F8FFFB
:1001080012C0F7FF11C0F6FF10C0F4FF0FC0F3FFD5
:100118000EC0DAFF0DC0D9FF0CC0E2FF0BC0E1FF33
:100128000AC0EAFF09C0E9FF08C0FBFF07C0FAFFE1
:1001380006C0E0FF05C0E8FF04C0D8FF1000F7EFD5
:020148000AF0BB
:10060000004C53423A004D53423A000013EC0BF0B9
:10061000D8EC0AF0E8EC0AF020EC0BF045EC0BF01B
:10062000C180C182C184C1869390818093928A8265
:100630009384030E0001B66F6B0E0001806F000EF5
:1006400068EC0AF0B6C080F0110E68EC0AF024ECF9
:1006500009F0000E0001AF6F020E0001B06F040E32
:100660000001B16F060E0001B26F00D02CEC0BF050
:100670000001BA6F6D0E0001BA19D8B434D041D060
:1006800032D0B80E356E000E366EB90E376E000ED3
:10069000386EB70E396E000E3A6E0001AF51BFECE6
:1006A00005F00001B8513D6E3E6A3F6A406A83EC36
:1006B0000AF0200E37EC0BF00001B9513D6E3E6A96
:1006C0003F6A406A83EC0AF0200E37EC0BF0000121
:1006D000B7513D6E3E6A3F6A406A83EC0AF00A0EEB
:1006E00037EC0BF000D00001BE51D8B4CAD7B7C068
:1006F000B3F0B9C0B4F0B8C0B5F0000E0001BE6FE1
:10070000B5D7650E0001BA19D8A43BD00C0E4FEC3A
:1007100008F02CC0BBF02DC0BCF0060E246E060EF7
:10072000256E64EC09F0BBC0D9FFBCC0DAFFDF5016
:100730000001AE6F0001AE513D6E3E6A3F6A406AF5
:1007400083EC0AF0200E37EC0BF0010E246E060E3F
:10075000256E64EC09F0000120EE01F0BB51D926B2
:10076000BC51DA22DF500001AE6F0001AE513D6E88
:100770003E6A3F6A406A83EC0AF00A0E37EC0BF0DF
:1007800075D7720E0001BA19D8A41BD0070E0FEC52
:100790000AF080C0BBF081C0BCF0000120EE01F087
:1007A000BB51D926BC51DA220001DFAC07D0400E84
:1007B0000001806F070E68EC0AF000D03AEC06F0FA
:1007C00055D7730E0001BA19D8A403D029EC04F050
:1007D0004DD7740E0001BA19D8A448D76A0E00018B
:1007E000806F000E68EC0AF0B30E0001946F000EEB
:1007F0000001956FB6C096F011EC07F0070E0FECF4
:100800000AF080C0BBF081C0BCF0000120EE01F016
:10081000BB51D926BC51DA220001DFA807D0100E47
:100820000001806F070E68EC0AF000D0000120EE96
:1008300001F0BB51D926BC51DA220001DFAA16D73C
:10084000200E0001806F070E68EC0AF00FD7A3EFAF
:1008500000F0000E0001996F000E986F000199BF23
:100860000AD00001995106E1120E0001985DD8B03E
:100870008CD001D08AD00A0E00019819000199117C
:10088000D8B40ED00B0E0001981900019911D8B4FC
:1008900007D0100E0001981900019911D8A43ED07C
:1008A00000019851DBEC09F080C095F081C096F012
:1008B00098C03DF099C03EF0000E3EBEFF0E3F6E68
:1008C000406E83EC0AF03A0E37EC0BF0010E00019B
:1008D000976F050E0001976501D01CD0000197515C
:1008E000010DF35000019525D96EF45000019621B9
:1008F000DA6EDF500001946F000194513D6E3E6A44
:100900003F6A406A83EC0AF0200E37EC0BF00001DE
:10091000972BDFD70A0E37EC0BF02CD00001985143
:100920000FEC0AF080C095F081C096F098C03DF0C1
:1009300099C03EF0000E3EBEFF0E3F6E406E83EC4F
:100940000AF03A0E37EC0BF0000120EE01F0955161
:10095000D9269651DA22DF500001946F000194519C
:100960003D6E3E6A3F6A406A83EC0AF00A0E37EC3D
:100970000BF000D00001984B992B000199BF7BD759
:100980000001995102E170D700D0120032C038F056
:1009900033C039F034C03AF035C03BF000D038C035
:1009A00023F039C024F03AC025F03BC026F036C011
:1009B00027F037C028F0000E28BEFF0E296E2A6EE1
:1009C00099EC08F023C038F024C039F025C03AF083
:1009D00026C03BF0304A312A385039103A103B10CB
:1009E000D8A4DDD730C0D9FF31C0DAFF000EDF6EEA
:1009F0003006D8A0310600D032C023F033C024F036
:100A000034C025F035C026F036C027F037C028F0B6
:100A1000000E28BEFF0E296E2A6EA3EC09F02350AB
:100A20003C6E32C023F033C024F034C025F035C012
:100A300026F036C027F037C028F0000E28BEFF0E83
:100A4000296E2A6E99EC08F023C032F024C033F0EE
:100A500025C034F026C035F0090E3C6402D0070EE4
:100A60003C26300E3C2630C0D9FF31C0DAFF3CC0F6
:100A7000DFFF3006D8A03106325033103410351065
:100A8000D8A4BAD7120030C034F0356A366A2F3491
:100A9000343601E335803450376E3750D8A402D055
:100AA0000ED06CD033C034F0356A366A3234343606
:100AB00001E3358034503C6E3C50D8A407D0000E82
:100AC0002E6E000E2F6E000E306E58D03C507B0FF5
:100AD000372630C03CF033503C1A800E3C162F8E27
:100AE000328EFF0E3116FF0E3216000E3316000E38
:100AF000386E000E396E000E3A6E070E3B6E00D057
:100B00002EA007D0315038263250392233503A22A5
:100B100000D0D89030322F322E32D8903136323643
:100B200033363B2EEDD700D0090E3B6E00D02EA001
:100B300007D0315038263250392233503A2200D073
:100B4000D89030322F322E32D8903A323932383271
:100B50003B2EEDD700D038C023F039C024F03AC086
:100B600025F037C026F03CC027F0AEEC06F023C0DD
:100B70002EF024C02FF025C030F000D01200406EBF
:100B8000000E3D6E40C023F0246A000E266E020E59
:100B9000256EBAEC07F023503E6E3E5000083B6EC7
:100BA000070E3B26010E3C6E3B2A02D0D8903C3605
:100BB0003B2EFCD73C503F6E0C0E2C6E3FC02DF0F0
:100BC0000C0E9CEC0AF052D03E5000083B6E030E17
:100BD0003B26010E3C6E3B2A02D0D8903C363B2E81
:100BE000FCD73C503F6E0C0E4FEC08F02CC041F08F
:100BF0002DC042F020EE01F04150D9264250DA22B9
:100C0000DF503F140009D8B431D040504FEC08F009
:100C10002CC041F02DC042F041C0D9FF42C0DAFFE4
:100C200035C0E1FF36C0E2FFDFCFE7FF20EE01F085
:100C30004150D9264250DA2237C0E1FF38C0E2FFE6
:100C4000DFCFE7FF40284FEC08F02CC041F02DC06B
:100C500042F041C0D9FF42C0DAFF39C0E1FF3AC0DB
:100C6000E2FFDFCFE7FF010E3D6E00D03D50D8B46C
:100C7000ABD71200B1EC0AF0110E0FEC0AF080C0F5
:100C8000ABF081C0ACF03B0E0001806F000E68EC51
:100C90000AF000D00001BD51D8B4FCD7000E00010D
:100CA000BD6F8190610EC96EB70E466ED10E476E54
:100CB000380E486E05EC08F000D05750D8B4FDD778
:100CC000A9C095F0000E576E000E0001AD6F35D033
:100CD000610EC96EB70E466ED10E476E380E486E65
:100CE00005EC08F000D05750D8B4FDD70001AD5145
:100CF000010D950EF324D96E000EF420DA6EC9CFE3
:100D0000DFFF0001AD51010D950EF324D96E000EE9
:100D1000F420DA6EDF500001946F000194513D6EB3
:100D20003E6A3F6A406A83EC0AF00A0E37EC0BF029
:100D3000000E576E0001AD2B00D0000120EE01F037
:100D4000AB51D926AC51DA22DE500001AD5DD8A0FE
:100D5000BFD78180000E0001BE6F12002650D8B4AC
:100D600005D0235024102510D8A40ED0000E236ED9
:100D7000000E246E000E256E53D006D0262AD89081
:100D800025322432233200D0000E2314286E000EA8
:100D90002414296EFE0E25142A6E285029102A10BC
:100DA000D8B40ED0EBD70CD0262A010E2326000E85
:100DB0002422000E2522D89025322432233200D05E
:100DC000000E2314286E000E2414296EFF0E251425
:100DD0002A6E285029102A10D8B408D0E5D706D09A
:100DE0002606D89023362436253600D024BE04D0DB
:100DF000020E2660F5D700D026B002D0249E00D087
:100E0000D8902632265025122750D8B402D0258EED
:100E100000D023C023F024C024F025C025F000D04A
:100E200012001E0E0001806F070E68EC0AF0819020
:100E300081928182A00EC96E00D05750D8B4FDD7E0
:100E4000C9CF9AF0000E576E000E00019C6F000E85
:100E50009B6F2ED000019B5100019425D96E00019B
:100E60009C5100019521DA6EDF50C96E00019B5143
:100E700000019425D96E00019C5100019521DA6E84
:100E8000DF500001976F000197513D6E3E6A3F6A47
:100E9000406A83EC0AF00A0E37EC0BF000D0575092
:100EA000D8B4FDD7000E576E00019B4B9C2B00D091
:100EB000000196510001976F986B00019751000156
:100EC0009B5D00019C51800A0001996F00019851BF
:100ED000800A00019959D8A0BDD7818012003FAE89
:100EE00017D03DC043F03EC044F03FC045F0431E24
:100EF000441E451E432A000E44224522000E432470
:100F00003D6E000E44203E6E800E45203F6E00D0A8
:100F100042AE17D040C043F041C044F042C045F05B
:100F2000431E441E451E432A000E44224522000E45
:100F30004324406E000E4420416E800E4520426ED8
:100F400000D0000E3D1A000E3E1A800E3F1A000E11
:100F5000401A000E411A800E421A40503D5C41502A
:100F60003E5842503F58D8B002D0D89002D0D880D6
:100F700000D01200000E286E26AE07D0256C261E6B
:100F8000D8B0262A010E286E00D024AE07D0236CDC
:100F9000241ED8B0242A010E281A00D0000E2A6E72
:100FA000000E296E25502610D8B421D0010E276ED0
:100FB00005D0D89025362636272A00D026BE02D066
:100FC000F8D700D0D89029362A362550235C2650F1
:100FD0002458D8A006D02550235E2650245A2980B4
:100FE00000D0D89026322532272EECD700D02850BA
:100FF000D8B405D0296C2A1ED8B02A2A00D029C01E
:1010000023F02AC024F000D01200B180000E4B6EF5
:1010100052C04CF053C04DF052C04EF053C04FF090
:10102000FF0EB36EF50EB26E36D052C04EF053C006
:101030004FF0B70E316ED10E326E380E336E4CC09B
:1010400049F04DC04AF0491E4A1E494A4A2A4E50AC
:1010500049242B6E4F504A202C6EC5EC0AF02BC051
:101060002EF02CC02FF02DC030F043EC05F02EC038
:101070003DF02FC03EF030C03FF046C040F047C0CA
:1010800041F048C042F06FEC07F0D8A004D0010E48
:101090004B6EB19000D04B50D8B4C7D712002F6E12
:1010A000A00E306E2FC031F0000E326E010E336E86
:1010B000300E246E000E256E020E266E43EC0AF0F2
:1010C000C58205EC0BF0A10EC96E05EC0BF0000E0D
:1010D000346E23D025D0C58605EC0BF03450010DBD
:1010E0005C0EF324D96E000EF420DA6EC9CFDFFF58
:1010F0003450010D320EF324D96E000EF420DA6E56
:10110000DF502E6E2E3A2E46C5502E18DF0B2E18AD
:10111000C56EC58805EC0BF0342A010E3464DBD7AC
:10112000C58405EC0BF05C0E2C6E000E2D6E00D00D
:101130001200000E2B6E000E2C6E000E2D6E000E97
:101140002E6E2750281029102A10D8B42FD0010E47
:101150002F6E07D0D8902736283629362A362F2AE0
:1011600000D02ABE02D0F6D700D0D8902B362C362D
:101170002D362E362750235C2850245829502558C8
:101180002A502658D8A00AD02750235E2850245A27
:101190002950255A2A50265A2B8000D0D8902A321E
:1011A0002932283227322F2EE0D700D02BC023F04F
:1011B0002CC024F02DC025F02EC026F01200060011
:1011C000EACF18F0E1CF19F0E2CF1AF0D9CF1BF037
:1011D000DACF1CF0F3CF1DF0F4CF1EF0F6CF1FF0E6
:1011E000F7CF20F0F8CF21F0F5CF22F0A1A208D060
:1011F000524A532AA1923C0EB36EAF0EB26E00D08B
:10120000F0A205D0010E0001BD6FF09200D022C007
:10121000F5FF21C0F8FF20C0F7FF1FC0F6FF1EC07A
:10122000F4FF1DC0F3FF1CC0DAFF1BC0D9FF1AC0BA
:10123000E2FF19C0E1FF18C0EAFF17C0E9FF16C0BE
:10124000FBFF15C0FAFF1100100E2C6E000E2D6E64
:10125000080E9CEC0AF0300E2C6E000E2D6E090E5E
:101260009CEC0AF0500E2C6E000E2D6E0A0E9CECBB
:101270000AF0700E2C6E000E2D6E0B0E9CEC0AF018
:101280000C0E2C6E800E2D6E0C0E9CEC0AF0D90EFE
:101290002C6E000E2D6E0D0E9CEC0AF0D90E2C6EED
:1012A000000E2D6E0E0E9CEC0AF0D90E2C6E000E68
:1012B0002D6E0F0E9CEC0AF0D90E2C6E000E2D6ECA
:1012C000100E9CEC0AF01200000E286E1ED0285062
:1012D000010D24C026F025C027F0F3502626F45037
:1012E000272226C0F6FF27C0F7FFF86A050EF7642D
:1012F00003D00800F55005D0F6CFE1FFF7CFE2FFAD
:10130000E75037EC0BF0282A00D02850010D24C0FC
:1013100026F025C027F0F3502626F450272226C0B9
:10132000F6FF27C0F7FFF86A050EF76403D0080040
:10133000F55005D0F6CFE1FFF7CFE2FFE750000907
:10134000D8A4C5D712002750281029102A10D8B4C5
:1013500029D0010E2B6E07D0D89027362836293693
:101360002A362B2A00D02ABE02D0F6D700D027502A
:10137000235C28502458295025582A502658D8A094
:1013800009D02750235E2850245A2950255A2A5024
:10139000265A00D0D8902A322932283227322B2ED2
:1013A000E6D700D023C023F024C024F025C025F0C8
:1013B00026C026F012000001876FB1EC0AF0819080
:1013C000000E0001886F1ED021D087C0C9FFB70E64
:1013D000466ED10E476E380E486E05EC08F000D010
:1013E0005750D8B4FDD7000E576E00018851010D3B
:1013F000820EF324D96E000EF420DA6EC9CFDFFF1F
:101400000001882B050E00018865DFD78180820EE0
:101410000001806F000E0001816F00D012000001FA
:10142000826FB1EC0AF08190000E0001856F1ED032
:1014300021D082C0C9FFC60E466E270E476E370EFA
:10144000486E05EC08F000D05750D8B4FDD7000E18
:10145000576E00018551010D830EF324D96E000EE5
:10146000F420DA6EC9CFDFFF0001852B010E0001E9
:101470008565DFD78180830E0001806F000E00013B
:10148000816F00D0120020EC0BF0C58005EC0BF052
:10149000000E2B6E000E2A6E0DD02A502424D96E19
:1014A0002B502520DA6EDF50C96E05EC0BF02A4A6E
:1014B0002B2A00D02650276E286A27502A5C2B50F2
:1014C000800A296E2850800A2958D8A0E6D7120031
:1014D0000001826FB1EC0AF0819000018251200975
:1014E000C96E00D05750D8B4FDD7C9CF81F0000ED7
:1014F000576E80C0C9FF00D05750D8B4FDD7000E3A
:10150000576E81801200800E306E000E316E3DC02D
:1015100032F03EC033F03FC034F040C035F0000E32
:10152000376E0A0E366EC6EC04F0800E246E000E86
:10153000256E64EC09F012002E6EA00E2F6E2EC0E8
:1015400030F02CC031F02DC032F02F0E246E000E82
:10155000256E040E266E43EC0AF0C58405EC0BF0F4
:101560001200949A9496C69AC78CC698C690C69252
:10157000C694C696C79EC68AB70E466ED10E476EF3
:10158000380E486E05EC08F012002BC023F02CC07A
:1015900024F0256A8E0E266E000E276EAEEC06F045
:1015A00023C02BF024C02CF025C02DF000D0120059
:1015B000D08EF28EF28C9D869D8A9D8CA082A08614
:1015C000F198F088F08E9F969F9A9F9CA2821200BD
:1015D000948E948CAB8EAC98AC84B896000EB06EA2
:1015E0000C0EAF6E9D8A9D98AC8AAB8812000001EC
:1015F000BE6BBD6B00EE50F00E0EEE6AE806FDE12C
:10160000000EF86E000106EF03F000D0C7A403D06F
:10161000236A232A01D0236AC5501F0B2310000917
:10162000D8A4F4D71200D3508F0B6009D36EFC0EF0
:10163000D3169B9C9B909B929B949B969B9812008D
:10164000C69A94869488C650F00B0809C66EC78E59
:10165000090EC86EC68A120000D00001BE51D8B46F
:10166000FCD7000E0001BE6F595000D01200236E4F
:1016700000D0ACA2FED723C0ADFF1200016E00D097
:10168000ACA2FED701C0ADFF1200800EB16E1200F9
:020000040020DA
:08000000FFFFFFFFFFFFFFFF00
:020000040030CA
:0E000000FF091F1EFF8185FF0FC00FE00F409C
:00000001FF
