:040000009DEF00F080
:0E0008005D82FACF15F0FBCF16F031ED07F058
:100018005D80D8CF04F0E8CF05F0E0CF06F0FACF46
:1000280007F0FBCF08F0E9CF09F0EACF0AF0E1CFFB
:100038000BF0E2CF0CF0D9CF0DF0DACF0EF0F3CF02
:100048000FF0F4CF10F0F6CF11F0F7CF12F0F8CF91
:1000580013F0F5CF14F09EAC03D0010E546E9E9CA5
:100068009EA607D0C5BC02D0010E536EC750C7501C
:100078009E96A1A605D0620ECCEC08F0A19635D0CC
:100088009EAA03D0026A022A01D0026A000EABB40B
:10009800010EABB2010EE8A003D0036A032A01D017
:1000A800036A0350D8A402D0010E01D0000E021436
:1000B8000009D8B405D0AECF57F0010E596E15D04F
:1000C800000EABB4010EABB2010EE8A003D0026A79
:1000D800022A01D0026A0250D8B405D0AECF57F038
:1000E800AB98AB8802D0AECF5AF014C0F5FF13C05E
:1000F800F8FF12C0F7FF11C0F6FF10C0F4FF0FC0E1
:10010800F3FF0EC0DAFF0DC0D9FF0CC0E2FF0BC031
:10011800E1FF0AC0EAFF09C0E9FF08C0FBFF07C00A
:10012800FAFF06C0E0FF05C0E8FF04C0D8FF5D90F5
:06013800100074EF08F056
:100600000064656C617965643F0A00436F756E74C0
:100610003A004C5342313A004D5342313A004C5368
:1006200042323A004D5342323A00544D52333A006E
:100630004C53423A004D53423A000000000E496EBE
:10064000B7EC05F0000E526E000E516EB1803C0EFC
:10065000B36EAF0EB26E000E486E000E476EB0D095
:10066000180E5FEC06F02CC04AF02DC04BF020EEC7
:1006700001F04A50D9264B50DA22DFA602D0010EF3
:10068000496E4950D8B4ECD7000E496E000E5FECAD
:1006900006F02CC04AF02DC04BF0180E246E060E4A
:1006A000256E71EC07F04AC0D9FF4BC0DAFFDF506E
:1006B000436E43503D6E3E6A3F6A406A04EC08F068
:1006C000200EC6EC08F0240E246E060E256E71EC8A
:1006D00007F020EE01F04A50D9264B50DA22DF50C5
:1006E000436E43503D6E3E6A3F6A406A04EC08F038
:1006F0000A0EC6EC08F0010E5FEC06F02CC04AF0C2
:100700002DC04BF0120E246E060E256E71EC07F014
:100710004AC0D9FF4BC0DAFFDF50436E43503D6EF5
:100720003E6A3F6A406A04EC08F0200EC6EC08F00E
:100730001E0E246E060E256E71EC07F020EE01F001
:100740004A50D9264B50DA22DF50436E43503D6E5B
:100750003E6A3F6A406A04EC08F00A0EC6EC08F0F4
:100760000B0E246E060E256E71EC07F051C03DF0A5
:1007700052C03EF03F6A406A04EC08F0200EC6EC1E
:1007800008F02A0E246E060E256E71EC07F0D90EC5
:10079000436EC20E446EB2CF45F0B3CF46F0435025
:1007A00045264450462245C03DF046C03EF03F6AD3
:1007B000406A04EC08F00A0EC6EC08F0474A482AE2
:1007C0004150475C42504858D8A05BD7B19065EC87
:1007D00008F012008EEC08F09BEC08F047EC08F0F3
:1007E000B4EC08F0BFEC08F00001976F6D0E00014B
:1007F0009719D8A407D0000E426EFA0E416E1EEC77
:1008000003F0F0D7640E00019719D8A40FD0000EA2
:10081000466E000E476E400E486E0CEC06F0010E60
:10082000246E060E256E71EC07F0DCD7650E000114
:100830009719D8A43BD01A0E5FEC06F02CC095F0A7
:100840002DC096F0350E246E060E256E71EC07F065
:1008500095C0D9FF96C0DAFFDF500001946F000108
:1008600094513D6E3E6A3F6A406A04EC08F0200EE7
:10087000C6EC08F0300E246E060E256E71EC07F003
:10088000000120EE01F09551D9269651DA22DF5071
:100890000001946F000194513D6E3E6A3F6A406AC8
:1008A00004EC08F00A0EC6EC08F09CD7720E0001AA
:1008B0009719D8A403D056EC08F094D7760E00010F
:1008C0009719D8A48FD7000E1DEC08F023C095F01F
:1008D00024C096F087D732C038F033C039F034C026
:1008E0003AF035C03BF038C023F039C024F03AC0AC
:1008F00025F03BC026F036C027F037C028F0000EA8
:1009000028BEFF0E296E2A6EF0EC06F023C038F0E8
:1009100024C039F025C03AF026C03BF0304A312AD5
:10092000385039103A103B10D8A4DDD730C0D9FF69
:1009300031C0DAFF000EDF6E3006D8A0310632C0BB
:1009400023F033C024F034C025F035C026F036C083
:1009500027F037C028F0000E28BEFF0E296E2A6E41
:10096000AFEC07F023503C6E32C023F033C024F0CC
:1009700034C025F035C026F036C027F037C028F047
:10098000000E28BEFF0E296E2A6EF0EC06F023C082
:1009900032F024C033F025C034F026C035F0090E03
:1009A0003C6402D0070E3C26300E3C2630C0D9FFF6
:1009B00031C0DAFF3CC0DFFF3006D8A0310632502C
:1009C000331034103510D8B41200B9D730C034F019
:1009D000356A366A2F34343601E335803450376E49
:1009E0003750D8A407D0000E2E6E000E2F6E000ECA
:1009F000306E120033C034F0356A366A3234343621
:100A000001E3358034503C6E3C50D8A407D0000E32
:100A10002E6E000E2F6E000E306E12003C507B0FBB
:100A2000372630C03CF033503C1A800E3C162F8ED7
:100A3000328EFF0E3116FF0E3216000E3316000EE8
:100A4000386E000E396E000E3A6E070E3B6E2EA009
:100A500006D0315038263250392233503A22D890BD
:100A600030322F322E32D8903136323633363B2E5A
:100A7000EED7090E3B6E2EA006D0315038263250EC
:100A8000392233503A22D89030322F322E32D89039
:100A90003A32393238323B2EEED738C023F039C0E3
:100AA00024F03AC025F037C026F03CC027F060ECB7
:100AB00005F023C02EF024C02FF025C030F0120026
:100AC0002650D8B405D0235024102510D8A40CD01B
:100AD000000E236E000E246E000E256E1200262AD4
:100AE000D890253224322332000E2314286E000EB3
:100AF0002414296EFE0E25142A6E285029102A105F
:100B0000D8B40CD0ECD7262A010E2326000E2422BE
:100B1000000E2522D890253224322332000E2314D1
:100B2000286E000E2414296EFF0E25142A6E2850FC
:100B300029102A10D8B406D0E6D72606D890233636
:100B40002436253624BE03D0020E2660F6D726A012
:100B5000249ED8902632265025122750D8A4258EC0
:100B600023C023F024C024F025C025F01200540E29
:100B70002E6E1E0E2F6EF80E306E000E316E2E0E83
:100B80002C6E000E2D6EA8EC08F0540E2E6E100E7A
:100B90002F6E000E306E140E316E2E0E2C6E000E67
:100BA0002D6EA8EC08F0540E2E6E080E2F6E200E3F
:100BB000306E000E316E2E0E2C6E000E2D6EA8ECD7
:100BC00008F0540E2E6E140E2F6E000E306E020EB4
:100BD000316E2E0E2C6E000E2D6EA8EC08F0540E09
:100BE0002E6E1B0E2F6E020E306E0D0E316E2E0EFF
:100BF0002C6E000E2D6EA8EC08F0540E2E6E1A0E00
:100C00002F6E160E306E850E316E2E0E2C6E000E6F
:100C10002D6EA8EC08F01200B180000E4C6E000E94
:100C20004B6E51C04DF052C04EF051C04FF052C00B
:100C300050F03C0EB36EAF0EB26E3DD051C04FF0CF
:100C400052C050F051C03DF052C03EF03F6A406A81
:100C500004EC08F0CD0E316E4C0E326E3D0E336E4C
:100C60004DC049F04EC04AF0491E4A1E494A4A2A20
:100C70004F5049242B6E50504A202C6E35EC08F012
:100C80002BC02EF02CC02FF02DC030F0E6EC04F07D
:100C90002EC03DF02FC03EF030C03FF046C040F0C7
:100CA00047C041F048C042F0A8EC06F0D8A003D0FD
:100CB000010E4C6EB1904C50D8A41200BFD72F6ECD
:100CC000540E306E2FC031F0000E326E010E336EB6
:100CD000300E246E000E256E020E266EE2EC07F03A
:100CE000C58281EC08F0550EC96E81EC08F0000E4B
:100CF000346E010E346401D023D0C58681EC08F037
:100D00003450010D5B0EF324D96E000EF420DA6E20
:100D1000C9CFDFFF3450010D320EF324D96E000E1F
:100D2000F420DA6EDF502E6E2E3A2E46C5502E1865
:100D3000DF0B2E18C56EC58881EC08F0342AD9D790
:100D4000C58481EC08F05B0E2C6E000E2D6E120037
:100D50003FAE16D03DC043F03EC044F03FC045F02A
:100D6000431E441E451E432A000E44224522000E07
:100D700043243D6E000E44203E6E800E45203F6EA3
:100D800042AE16D040C043F041C044F042C045F0EE
:100D9000431E441E451E432A000E44224522000ED7
:100DA0004324406E000E4420416E800E4520426E6A
:100DB000000E3D1A000E3E1A800E3F1A000E401A19
:100DC000000E411A800E421A40503D5C41503E5880
:100DD00042503F58D8B002D0D8901200D8801200AC
:100DE000000E2B6E000E2C6E000E2D6E000E2E6E61
:100DF0002750281029102A10D8B42AD0010E2F6E9F
:100E000006D0D8902736283629362A362F2A2AAEF9
:100E1000F8D7D8902B362C362D362E362750235C1B
:100E200028502458295025582A502658D8A009D08F
:100E30002750235E2850245A2950255A2A50265AD2
:100E40002B80D8902A322932283227322F2EE1D710
:100E50002BC023F02CC024F02DC025F02EC026F08E
:100E600012000600E9CF17F0EACF18F0E1CF19F031
:100E7000E2CF1AF0D9CF1BF0DACF1CF0F3CF1DF080
:100E8000F4CF1EF0F6CF1FF0F7CF20F0F8CF21F00F
:100E9000F5CF22F0A1A207D0514A522AA1923C0ECE
:100EA000B36EAF0EB26E22C0F5FF21C0F8FF20C0B6
:100EB000F7FF1FC0F6FF1EC0F4FF1DC0F3FF1CC0EC
:100EC000DAFF1BC0D9FF1AC0E2FF19C0E1FF18C04A
:100ED000EAFF17C0E9FF16C0FBFF15C0FAFF5D92DD
:100EE0001100000E286E1DD02850010D24C026F0E0
:100EF00025C027F0F3502626F450272226C0F6FFFF
:100F000027C0F7FFF86A050EF76403D00800F55014
:100F100005D0F6CFD9FFF7CFDAFFDF50C6EC08F0E7
:100F2000282A2850010D24C026F025C027F0F350B0
:100F30002626F450272226C0F6FF27C0F7FFF86ABE
:100F4000050EF76403D00800F55005D0F6CFD9FFA1
:100F5000F7CFDAFFDF500009D8B41200C5D7275009
:100F6000281029102A10D8B424D0010E2B6E06D0D8
:100F7000D8902736283629362A362B2A2AAEF8D793
:100F80002750235C28502458295025582A50265889
:100F9000D8A008D02750235E2850245A2950255A1B
:100FA0002A50265AD8902A322932283227322B2E1C
:100FB000E7D723C023F024C024F025C025F026C0A5
:100FC00026F01200C58081EC08F0000E2B6E000E9A
:100FD0002A6E0CD02A502424D96E2B502520DA6E8C
:100FE000DF50C96E81EC08F02A4A2B2A2650276E62
:100FF000286A27502A5C2B50800A296E2850800AC4
:101000002958D8B01200E6D7800E306E000E316E2F
:101010003DC032F03EC033F03FC034F040C035F048
:10102000000E376E0A0E366E6BEC04F0800E246EE6
:10103000000E256E71EC07F01200266E26C025F01A
:1010400025462546C2502518C30B2518C26EC282FC
:10105000C2B2FED7000E546EC3CF27F0C4CF28F023
:10106000270E236E000E246E12002BC023F02CC01E
:1010700024F0256A8E0E266E000E276E60EC05F0B9
:1010800023C02BF024C02CF025C02DF01200948E2C
:10109000948CAB8EAC98AC84B896000EB06E0C0EEF
:1010A000AF6E9D8A9D98AC8AAB881200540E2E6E4E
:1010B0001C0E2F6E800E306E000E316E2E0E2C6EBA
:1010C000000E2D6EA8EC08F01200540E2E6E1A0EB3
:1010D0002F6E1E0E306EA10E316E2E0E2C6E000E77
:1010E0002D6EA8EC08F0120000EE51F00C0EEE6A26
:1010F000E806FDE15D905D92000EF86E0001EAEFFA
:1011000003F0C7A403D0236A232A01D0236AC55061
:101110001F0B23100009D8B41200F3D7D3508F0B44
:101120006009D36EFC0ED3169B9C9B909B929B9464
:101130009B969B981200D08EF28EF28C9D869D8A93
:101140009D8CA082A0869F969F9A9F9CA28212004F
:101150002CC024F02DC025F0040E266EE2EC07F022
:10116000C58481EC08F01200C68A94869488C65023
:10117000F00B0809C66EC78E090EC86E12005950D2
:10118000D8B4FDD7000E596E57501200236EACA292
:10119000FED723C0ADFF1200016EACA2FED701C086
:0411A000ADFF12008D
:020000040020DA
:08000000FFFFFFFFFFFFFFFF00
:020000040030CA
:0E000000FF091F1EFF8385FF0FC00FE00F409A
:00000001FF
